:020000040000FA
:020000000A28CC
:10000800FE00030EF0000A08F1004E2C0B28D42441
:10001800B800D524B900D624BA00D724BB00D82408
:10002800BC00B001B101B201B301B401B501B60120
:10003800B701FA01FB01830121288B170B171F1445
:100048009F141F156524C224CC2482308312031305
:10005800AE00DD30AD00AD0B2F28AE0B2F28000011
:100068000030B724023083120313AF004530AE00CE
:10007800A930AD00AD0B3E28AE0B3E28AF0B3E2895
:1000880000000030AC24023083120313AF00453067
:10009800AE00A930AD00AD0B4F28AE0B4F28AF0B0B
:1000A8004F2800000030A124023083120313AF0050
:1000B8004530AE00A930AD00AD0B6028AE0B60280E
:1000C800AF0B60280000003096240230831203131F
:1000D800AF004530AE00A930AD00AD0B7128AE0BB6
:1000E8007128AF0B712800000130B7240130AC240F
:1000F8000130A12401309624E723003A031DA928E2
:100108000030B724063083120313AF001330AE005B
:10011800AD30AD00AD0B8E28AE0B8E28AF0B8E2800
:10012800000080280030B7240030AC240630831249
:100138000313AF001330AE00AD30AD00AD0BA228F5
:10014800AE0BA228AF0BA228000050300C24003AB6
:10015800031DC22896280030B7240030A124063099
:1001680083120313AF001330AE00AD30AD00AD0BFA
:10017800BB28AE0BBB28AF0BBB28000001302D24D9
:10018800003A031DDB28AF280030B724003096243E
:10019800063083120313AF001330AE00AD30AD004C
:1001A800AD0BD428AE0BD428AF0BD428000077248D
:1001B800003A0319C8280130B7240130AC240130B3
:1001C800A1240130962483160C14F9018312031319
:1001D80034080319F728012183120313B4010130ED
:1001E800FF007F08F90705307902031CEA28692314
:1001F800003A0319E928BC21E928F3013A08031950
:100208000D29390803190D29380803190D29F30197
:10021800F30A7308AC243A1C152983120313051535
:100228001829831203130511391C1E29831203137D
:1002380085152129831203138511381C2729831258
:10024800031305162A298312031305123308803A6B
:10025800FF0080307F02031D33290130320203186A
:100268003729013038290030A1243308803AFF00AB
:1002780080307F02031D422901303202031C71299C
:10028800831203133C0A031D5429FF30FF007F0823
:10029800FB07FB1F5D290330FF007F08FB005D297A
:1002A8000130FF007F08FB077B08803A7C3E03187B
:1002B800FB01FF30B2070318B30AFF30B3077B080E
:1002C800031986177B030319061602307B060319E8
:1002D800861303307B0603190612831203133108B1
:1002E800803AFF0080307F02031D7C2901303002F4
:1002F8000318802901308129003096243108803A7A
:10030800FF0080307F02031D8B2901303002031C5F
:100318000800831203133B0A031D9D29FF30FF00C9
:100328007F08FA07FA1FA6290330FF007F08FA00A2
:10033800A6290130FF007F08FA077A08803A7C3E38
:100348000318FA01FF30B0070318B10AFF30B107EC
:100358007A08031986167A030319061702307A06F3
:100368000319861203307A06031D080006130800D5
:100378003718C0290130C1290030FF007F08BA00B2
:100388003719C8290130C9290030FF007F08B90092
:10039800B718D0290130D1290030FF007F08B800F4
:1003A80036080319002A371EEA293609FF3A013EA2
:1003B800AA23FF007F08F5003C0A031DE5297508FC
:1003C800F329B201B301BC01BC03002A3608AA23F1
:1003D800FF007F08F6003C03031DFC297608F300A4
:1003E800F4017308B2070318B30A7408B307002AA4
:1003F800B201B301BC01BC0A3308803AFF00803067
:100408007F02031D092A79303202031C112A783031
:1004180083120313B2000030B300831203133508AC
:1004280003193F2AB71E292A3509FF3A013EAA2394
:10043800FF007F08F7003B0A031D242A7708322AA9
:10044800B001B101BB01BB033F2A3508AA23FF0055
:100458007F08F8003B03031D3B2A7808F300F401EA
:100468007308B0070318B10A7408B1073F2AB0012E
:10047800B101BB01BB0A3108803AFF0080307F021E
:10048800031D482A79303002031C08007830831293
:100498000313B0000030B1000800851483168514DA
:1004A80083120514831605141030F400F40B5A2A2D
:1004B800000083120313A001A101702A0130A007D4
:1004C8000318A10A0030A107FF302102FE300319EA
:1004D80020020318742A0000831203130518622AE5
:1004E800851C7C2A0130F200FF30F3000800000070
:1004F80083120313051C7B2AA201A301A30AA401EA
:1005080083120313051C8A2A0000842A00308518E8
:1005180001302306FF007F08A30000308518013052
:10052800F400240A992A0310F40DFF3E031D972AAC
:100538007408FF007F08A204831203130518A62A73
:100548000000A02A0130FF007F08A4070830240219
:100558000318B02A842A0000831203130518AF2A4F
:1005680000308518013023060319C02A0230F20032
:10057800FF30F30008000000831203130518C62A91
:10058800BF2A0000831203130518C52A8518D22A2A
:100598000330F200FF30F300080000008312031359
:1005A800051CD12A2208F400F5017408F200750828
:1005B800F3000800F50083120313851483168514CD
:1005C80083120514831605143130F200F20BEA2A5F
:1005D800ED2A831603130510831205103130F2003B
:1005E800F20BF42AF72A8316031385108312851059
:1005F8000330F200F20BFE2A83120313051483164C
:10060800051483120313051C0B2B0000052BF301A3
:10061800F30AF401751C142B831203138514172B8A
:100628008312031385108312031305181D2B000072
:10063800172B750801397306FF007F08F30075084A
:10064800F2000310720CFF007F08F50083120313F9
:10065800051C302B00002A2B0130FF007F08F4070F
:1006680008307402031C0E2B730803193F2B8312E6
:1006780003138514422B831203138510831203136B
:100688000518492B0000422B00008312031305189C
:10069800482B85148316851483120313851C572B46
:1006A8000000502B000083120313051C5D2B562BF2
:1006B8000000831203130518851C5C2B8514831610
:1006C80085140510831205100800EB30DE22512234
:1006D8007308A6007208A50051227308A8007208C2
:1006E800A70051227308AA007208A90051227308B2
:1006F800AC007208AB00D924FA3025062604031D85
:100708009A2B0130280200300319270203189A2B6C
:1007180001302A0200300319290203189A2B0130EC
:100728002C02003003192B02031C9C2B00300800FC
:100738002708FF007F08B7002908FF007F08B600D8
:100748002B08FF007F08B50001300800F20072088E
:100758000319B52B72030319B52B02307206031D5A
:10076800B82BF201F20ADD2B043072060319C42BF0
:10077800053072060319C42B06307206031DC62BFA
:100788000430D32B073072060319D22B08307206B7
:100798000319D22B09307206031DD72B0530FF0031
:1007A8007F08F200DD2B0A307202031CDD2B0310D8
:1007B800F20C08307202031CE52B0730FF007F089B
:1007C800F20072080800FF30DE2251227308A600EA
:1007D8007208A50051227308A8007208A7005122C8
:1007E8007308AA007208A900D924AB01FA302506BB
:1007F8002604031D0A2CAA3027062804031D0A2CE8
:1008080029082A04031D0A2CAB01AB0A2B0808008F
:1008180083120313A500F330DE2251227308A700C8
:100828007208A6002508DE2251227308A900720862
:10083800A800D924AA01FA3026062704031D2B2C68
:10084800FA3028062904031D2B2CAA01AA0A2A0813
:10085800080083120313A500E830DE225122730832
:10086800A7007208A6002508DE2251227308A900F5
:100878007208A800D924AA01FA3026062704031D05
:100888004C2CFA3028062904031D4C2CAA01AA0A6C
:100898002A080800831203130C1C5E2C83160C1004
:1008A8008312B401B40AF3308F001B308E000C1091
:1008B80083160C1471088A00700E8300FE0E7E0EDB
:1008C80009008316051185110512061286120613F2
:1008D800861383128617061686160617051505163B
:1008E800851588240800F030DE2251227308F700AD
:1008F8007208F600D924FA3076067704031D862C90
:1009080001300800003008001014901010159011E4
:1009180090121012F2308F0030308E000C108316B7
:100928000C100800F200721C9D2C8312031305178B
:1009380008008312031305130800F200721CA82C88
:100948008312031385170800831203138513080005
:10095800F200721CB32C831203138615080083124D
:10096800031386110800F200721CBE2C83120313B5
:1009780006140800831203130610080006108611D7
:1009880005138513831206148615851705170800A5
:10099800851483168514831205148316051408001C
:1009A80001340134013401340134831605108312F3
:0409B800051008001E
:02400E00583F19
:00000001FF
