:020000040000FA
:020000000A28CC
:10000800FE00030EF0000A08F100502C0B28D6243D
:10001800B800D724B900D824BA00D924BB00DA2400
:10002800BC00B001B101B201B301B401B501B60120
:10003800B701FA01FB01830121288B170B171F1445
:100048009F141F156724C424CE24823083120313FF
:10005800AE00DD30AD00AD0B2F28AE0B2F28000011
:100068000030B924023083120313AF004530AE00CC
:10007800A930AD00AD0B3E28AE0B3E28AF0B3E2895
:1000880000000030AE24023083120313AF00453065
:10009800AE00A930AD00AD0B4F28AE0B4F28AF0B0B
:1000A8004F2800000030A324023083120313AF004E
:1000B8004530AE00A930AD00AD0B6028AE0B60280E
:1000C800AF0B60280000003098240230831203131D
:1000D800AF004530AE00A930AD00AD0B7128AE0BB6
:1000E8007128AF0B712800000130B9240130AE240B
:1000F8000130A32401309824E923003A031DA928DC
:100108000030B924063083120313AF001330AE0059
:10011800AD30AD00AD0B8E28AE0B8E28AF0B8E2800
:10012800000080280030B9240030AE240630831245
:100138000313AF001330AE00AD30AD00AD0BA228F5
:10014800AE0BA228AF0BA228000050300E24003AB4
:10015800031DC22896280030B9240030A324063095
:1001680083120313AF001330AE00AD30AD00AD0BFA
:10017800BB28AE0BBB28AF0BBB28000001302F24D7
:10018800003A031DDB28AF280030B924003098243A
:10019800063083120313AF001330AE00AD30AD004C
:1001A800AD0BD428AE0BD428AF0BD428000079248B
:1001B800003A0319C8280130B9240130AE240130AF
:1001C800A3240130982483160C14F9018312031315
:1001D80034080319F728012183120313B4010130ED
:1001E800FF007F08F90705307902031CEA28692314
:1001F800003A0319E928BC21E928F3013A08031950
:100208000D29390803190D29380803190D29F30197
:10021800F30A7308AE243A1C152983120313051533
:100228001829831203130511391C1E29831203137D
:1002380085152129831203138511381C2729831258
:10024800031305162A298312031305123308803A6B
:10025800FF0080307F02031D33290130320203186A
:100268003729013038290030A3243308803AFF00A9
:1002780080307F02031D422901303202031C71299C
:10028800831203133C0A031D5429FF30FF007F0823
:10029800FB07FB1F5D290330FF007F08FB005D297A
:1002A8000130FF007F08FB077B08803A7C3E03187B
:1002B800FB01FF30B2070318B30AFF30B3077B080E
:1002C800031986177B030319061702307B060319E7
:1002D800861303307B0603190613831203133108B0
:1002E800803AFF0080307F02031D7C2901303002F4
:1002F8000318802901308129003098243108803A78
:10030800FF0080307F02031D8B2901303002031C5F
:100318000800831203133B0A031D9D29FF30FF00C9
:100328007F08FA07FA1FA6290330FF007F08FA00A2
:10033800A6290130FF007F08FA077A08803A7C3E38
:100348000318FA01FF30B0070318B10AFF30B107EC
:100358007A08031986167A030319061602307A06F4
:100368000319861203307A06031D080006120800D6
:100378003718C0290130C1290030FF007F08BA00B2
:100388003719C8290130C9290030FF007F08B90092
:10039800B718D0290130D1290030FF007F08B800F4
:1003A80036080319002A371EEA293609FF3A013EA2
:1003B800AA23FF007F08F5003C0A031DE5297508FC
:1003C800F329B201B301BC01BC03002A3608AA23F1
:1003D800FF007F08F6003C03031DFC297608F300A4
:1003E800F4017308B2070318B30A7408B307002AA4
:1003F800B201B301BC01BC0A3308803AFF00803067
:100408007F02031D092A79303202031C112A783031
:1004180083120313B2000030B300831203133508AC
:1004280003193F2AB71E292A3509FF3A013EAA2394
:10043800FF007F08F7003B0A031D242A7708322AA9
:10044800B001B101BB01BB033F2A3508AA23FF0055
:100458007F08F8003B03031D3B2A7808F300F401EA
:100468007308B0070318B10A7408B1073F2AB0012E
:10047800B101BB01BB0A3108803AFF0080307F021E
:10048800031D482A79303002031C08007830831293
:100498000313B0000030B1000800851483168514DA
:1004A80083120514831605141030F400F40B5A2A2D
:1004B800000083120313A001A101702A0130A007D4
:1004C8000318A10A0030A107FF302102FE300319EA
:1004D80020020318742A0000831203130518622AE5
:1004E800851C7C2A0130F200FF30F3000800000070
:1004F80083120313051C7B2AA201A301A30AA401EA
:1005080083120313051C8A2A0000842A00308518E8
:1005180001302306FF007F08A30000308518013052
:10052800F400240A992A0310F40DFF3E031D972AAC
:100538007408FF007F08A204831203130518A62A73
:100548000000A02A0130FF007F08A4070830240219
:100558000318B02A842A0000831203130518AF2A4F
:1005680000308518013023060319C02A0230F20032
:10057800FF30F30008000000831203130518C62A91
:10058800BF2A0000831203130518C52A8518D22A2A
:100598000330F200FF30F300080000008312031359
:1005A800051CD12A2208F400F5017408F200750828
:1005B800F3000800F50083120313851483168514CD
:1005C80083120514831605143130F200F20BEA2A5F
:1005D800ED2A831603130510831205103130F2003B
:1005E800F20BF42AF72A8316031385108312851059
:1005F8000330F200F20BFE2A83120313051483164C
:10060800051483120313051C0B2B0000052BF301A3
:10061800F30AF401751C142B831203138514172B8A
:100628008312031385108312031305181D2B000072
:10063800172B750801397306FF007F08F30075084A
:10064800F2000310720CFF007F08F50083120313F9
:10065800051C302B00002A2B0130FF007F08F4070F
:1006680008307402031C0E2B730803193F2B8312E6
:1006780003138514422B831203138510831203136B
:100688000518492B0000422B00008312031305189C
:10069800482B85148316851483120313851C572B46
:1006A8000000502B000083120313051C5D2B562BF2
:1006B8000000831203130518851C5C2B8514831610
:1006C80085140510831205100800EB30DE22512234
:1006D8007308A6007208A50051227308A8007208C2
:1006E800A70051227308AA007208A90051227308B2
:1006F800AC007208AB00DB24FA3025062604031D83
:100708009A2B0130280200300319270203189A2B6C
:1007180001302A0200300319290203189A2B0130EC
:100728002C02003003192B02031C9C2B00300800FC
:100738002708FF007F08B7002908FF007F08B600D8
:100748002B08FF007F08B50001300800F2000310F5
:10075800F20C72080319B72B72030319B72B023076
:100768007206031DBA2BF201F20ADF2B043072065F
:100778000319C62B053072060319C62B06307206FC
:10078800031DC82B0430D52B073072060319D42B50
:10079800083072060319D42B09307206031DD92BB1
:1007A8000530FF007F08F200DF2B0A307202031CBD
:1007B800DF2B0310F20C08307202031CE72B073002
:1007C800FF007F08F20072080800FF30DE22512285
:1007D8007308A6007208A50051227308A8007208C1
:1007E800A70051227308AA007208A900DB24AB01F4
:1007F800FA3025062604031D0C2CAA3027062804E7
:10080800031D0C2C29082A04031D0C2CAB01AB0A70
:100818002B08080083120313A500F330DE225122AF
:100828007308A7007208A6002508DE225122730863
:10083800A9007208A800DB24AA01FA3026062704BA
:10084800031D2D2CFA3028062904031D2D2CAA017E
:10085800AA0A2A08080083120313A500E830DE223A
:1008680051227308A7007208A6002508DE2251222B
:100878007308A9007208A800DB24AA01FA3026062A
:100888002704031D4E2CFA3028062904031D4E2C7C
:10089800AA01AA0A2A080800831203130C1C602C58
:1008A80083160C108312B401B40AF3308F001B3086
:1008B8008E000C1083160C1471088A00700E8300C9
:1008C800FE0E7E0E0900831605118511051206120B
:1008D80086120613861383128617061786160616BF
:1008E8000515051685158A240800F030DE225122E8
:1008F8007308F7007208F600DB24FA3076067704EE
:10090800031D882C013008000030080010149010D6
:100918001015901190121012F2308F0030308E00A6
:100928000C1083160C100800F200721C9F2C831206
:100938000313051708008312031305130800F200B8
:10094800721CAA2C83120313851708008312031341
:1009580085130800F200721CB52C83120313861548
:1009680008008312031386110800F200721CC02CC1
:1009780083120313061408008312031306100800D9
:10098800061086110513851383120614861585171C
:100998000517080085148316851483120514831619
:1009A800051408000134013401340134013483167C
:0809B800051083120510080070
:02400E00583F19
:00000001FF
